:03000000020A9B56
:0C0A9B00787FE4F6D8FD758117020A1C74
:100A410020652D79616E747261206C6162002053A2
:0E0A510056504345542C204E6167707572005C
:0908C700120800D2B27F057E0088
:1008D000E4FDFCC3ED9FEE6480F8EC648098501555
:1008E000E4FBFA0BBB00010AEB64644A70F50DBD32
:0508F00000010C80DE98
:0108F50022E0
:10080000EF30E004D2908002C290EF30E104D29148
:100810008002C291EF30E204D2928002C292EF30A5
:10082000E304D2938002C293EF30E404D2948002B6
:10083000C294EF30E504D2958002C295EF30E60411
:10084000D2968002C296EF30E703D29722C2972257
:070A8C007E001208D07F304C
:080A9300C2B01208C7C2B22272
:050ACD007F01020A9305
:100A5F008F0AA905E50AB40105E924808008E50A93
:0B0A6F00B40207E924C0FF120A932222
:1009A400E4FF120800C2B07FC8120A8C7F32120A18
:1009B4008C7F6E120A8C7F38120A937F0C120A9372
:0A09C4007F01120A937F06020A93D6
:080AC500D2B01208C7C2B22230
:060923008B0A8A0B890C0F
:10092900E4F50DF50EAB0AAA0BA90C850E82850D0F
:10093900831208F6FF600D120AC5050EE50E70E573
:04094900050D80E137
:01094D002287
:050AD2007F1C020A93E5
:050AD7007F18020A93E4
:1009CE00EF30E004D2948002C294EF30E104D2956D
:1009DE008002C295EF30E204D2968002C296EF30CA
:0809EE00E303D29722C2972215
:070A7A007E001208D07F038B
:0B0A8100C2B01209CE1208CAC2B22295
:0A0AA700E4FF120A817F01020A81B8
:040850008F14A90553
:10085400E514B40112E92480FFF5157804A2E71326
:10086400D8FBF516EF8016E514B4021FE92480F5D1
:10087400157804A2E713D8FBF516E924C0540FF544
:0B08840017AF16120A81AF17120A818D
:01088F002246
:10089000E4FF1209CE7FC8120A7A7F32120A7A7FE9
:1008A0006E120A7A7F02120A817F02120A817F0881
:1008B000120A81E4FF120A817F0C120A81E4FF12FE
:0708C0000A817F06020A8194
:02094E00AE07F2
:10095000EE540FF9EE54F0FFD2B07804A2E713D8AA
:10096000FBFF1209CE1208CAC2B2AF011209CED2E1
:08097000B27F051208D0C2B2EB
:01097800225C
:060979008B0F8A108911AA
:10097F00E4F512F513AB0FAA10A911851382851296
:10098F00831208F6FF600D12094E0513E51370E58B
:04099F00051280E1DC
:0109A3002231
:0A0AB1007F01120A817F0C020A8106
:0A0ABB007F01120A817F08020A8100
:1009F600E4FDFCC3ED9FEE6480F8EC64809850152E
:100A0600E4FBFA0BBB00010AEB64644A70F50DBD0A
:050A160000010C80DE70
:010A1B0022B8
:100A1C001209A47D017F01120A5F7BFF7A0A7941DA
:100A2C001209237D017F02120A5F7BFF7A0A794F3C
:050A3C0012092380DE19
:1008F600BB010CE58229F582E5833AF583E02250B7
:1009060006E92582F8E622BBFE06E92582F8E22200
:0D091600E58229F582E5833AF583E493221A
:00000001FF
