:030000000209B240
:0C09B200787FE4F6D8FD7581070208008C
:100800007F381209A07F017E0012096E7F0612094F
:10081000A07F017E0012096E7F0F1209A07F017E6A
:100820000012096E7F011209A07F017E0012096E7D
:100830007F801209A012096A7F4412098E12096A88
:100840007F811209A012096A7F4E12098E7F327EC3
:100850000012096E7F821209A012096A7F591209DB
:100860008E7F327E0012096E7F831209A012096A00
:100870007F4112098E7F327E0012096E7F84120939
:10088000A012096A7F4E12098E7F327E0012096E15
:100890007F851209A012096A7F4412098E7F327E79
:1008A0000012096E7F861209A012096A7F4512099B
:1008B0008E7F327E0012096E7F871209A012096AAC
:1008C0007F5612098E7F327E0012096E7FC0120998
:1008D000A012096A7F5312098E12096A7FC1120998
:1008E000A012096A7F4112098E7F327E0012096EC2
:1008F0007FC21209A012096A7F5712098E7F327EC9
:100900000012096E7FC31209A012096A7F41120901
:100910008E7F327E0012096E7FC41209A012096A0E
:100920007F5212098E7F327E0012096E7FC5120936
:10093000A012096A7F4B12098E7F327E0012096E67
:100940007FC61209A012096A7F4112098E7F327E8A
:100950000012096E7FC71209A012096A7F5212099C
:0A0960008E7F327E0012096E80FEC9
:10098E00C2B6D2B78FA0D2B57F017E0012096EC259
:02099E00B52280
:1009A000C2B6C2B78FA0D2B57F017E0012096EC257
:0209B000B5226E
:04096A007FFA7E0092
:10096E00E4FDFCC3ED9FEC9E5015E4FBFA0BBB00BF
:0F097E00010ABA04F8BBFBF50DBD00010C80E4C3
:01098D002247
:00000001FF
