:1000000006C1000023C1000021C100001FC1000083
:100010001DC100001BC1000019C1000017C1000074
:1000200015C1000013C1000011C100000FC1000084
:100030000DC100000BC1000009C1000007C1000094
:1000400005C1000003C1000001C10000FFC00000A5
:10005000FDC00000FBC00000F9C0000015C2000098
:10006000F5C00000F3C00000F1C00000EFC00000C8
:10007000EDC00000EBC00000E9C00000E7C00000D8
:10008000E5C00000E3C00000E1C00000DFC00000E8
:10009000DDC00000DBC00000D9C00000D7C00000F8
:1000A000D5C00000D3C00000D1C00000CFC0000008
:1000B000CDC00000CBC00000C9C00000C7C0000018
:1000C000C5C00000C3C00000C1C00000BFC0000028
:1000D000BDC00000BBC00000B9C00000B7C0000038
:1000E000B5C000007401770166016A016E01AE01BE
:1000F0007B017F01850189018D01930197019B019E
:10010000AE01A101A501A90100000A0B02090C0D15
:100110000E080703040100000000000000000000BA
:1001200000000000000000000000000000000000CF
:10013000000000001211100000000000000000008C
:1001400000000000000000000000000000000000AF
:100150002200250028002B002E003100340002016F
:100160000000050108010B01000021002400270008
:100170002A002D00300033000101000004010701B6
:100180000A0105050505070508080808020202021C
:100190000A0A080804040404010101010101010123
:1001A0000303030303030303040707070C0C0C0CEE
:1001B0000C0C0C0C020202020606060606060606D7
:1001C0000B0B0B0B0B0B0B0B010210202008081064
:1001D00020401020408002010201080402010102B7
:1001E0000408102040808040201008040201800490
:1001F00002018040201008040201080402010102EB
:1002000004081020408001020408102040801124BE
:100210001FBECFEFD1E2DEBFCDBF00E00CBF12E0CA
:10022000A0E0B2E0EAE8F7E000E00BBF02C0079010
:100230000D92A830B107D9F722E0A8E0B2E001C0E2
:100240001D92A131B207E1F769D19DC2D9CE90E0EC
:10025000FC01E853FE4F2491FC01EE57FE4F8491C0
:10026000882399F090E0880F991FFC01E859FE4F10
:10027000A591B491FC01E25BFE4F859194918FB7FB
:10028000F894EC91E22BEC938FBF0895362F90E019
:10029000FC01E85FFE4F4491FC01E853FE4F2491BE
:1002A000FC01EE57FE4F9491992309F46AC0442350
:1002B00009F454C050E0FA013197E231F10508F039
:1002C0004DC08827EE58FF4F8F4F55C28091800058
:1002D0008F7707C0809180008F7D03C08091800060
:1002E000877F809380003AC084B58F7702C084B541
:1002F0008F7D84BD33C08091B0008F7703C0809123
:10030000B0008F7D8093B00029C0809190008F77DE
:1003100007C0809190008F7D03C080919000877FFF
:10032000809390001BC08091A0008F7707C08091C0
:10033000A0008F7D03C08091A000877F8093A000E4
:100340000DC0809120018F7707C0809120018F7DA3
:1003500003C080912001877F80932001E92FF0E086
:10036000EE0FFF1FE25BFE4FA591B4918FB7F8949B
:10037000EC91311103C020952E2301C02E2B2C931C
:100380008FBF08953FB7F89480910D0290910E02AF
:10039000A0910F02B091100226B5A89B05C02F3F77
:1003A00019F00196A11DB11D3FBFBA2FA92F982F9B
:1003B0008827820F911DA11DB11DBC01CD0142E016
:1003C000660F771F881F991F4A95D1F708958F925E
:1003D0009F92AF92BF92CF92DF92EF92FF926B010A
:1003E0007C01D0DF4B015C01C114D104E104F104B4
:1003F000E9F0C8DFDC01CB0188199909AA09BB091A
:10040000883E9340A105B10578F321E0C21AD108D6
:10041000E108F10888EE880E83E0981EA11CB11C4B
:10042000C114D104E104F10421F7DECFFF90EF9075
:10043000DF90CF90BF90AF909F908F90089598B12C
:100440009F7098B998B1282F207F922B98B9409827
:100450004198429AEFE1FEE43197F1F700C00000C5
:10046000429898B19F7098B998B18295807F892BF6
:1004700088B940984198429A8FE19EE40197F1F73C
:1004800000C00000429808951F920F920FB60F927D
:1004900011242F933F938F939F93AF93BF9380919A
:1004A000090290910A02A0910B02B0910C023091C6
:1004B000080223E0230F2D3720F40196A11DB11D62
:1004C00005C026E8230F0296A11DB11D2093080246
:1004D0008093090290930A02A0930B02B0930C023E
:1004E00080910D0290910E02A0910F02B091100226
:1004F0000196A11DB11D80930D0290930E02A09351
:100500000F02B0931002BF91AF919F918F913F91D5
:100510002F910F900FBE0F901F901895789484B56F
:10052000826084BD84B5816084BD85B5826085BDEF
:1005300085B5816085BD80916E00816080936E007D
:10054000109281008091810082608093810080916F
:100550008100816080938100809180008160809320
:1005600080008091B10084608093B1008091B000E0
:1005700081608093B00080919100826080939100AF
:1005800080919100816080939100809190008160C2
:10059000809390008091A10082608093A10080915F
:1005A000A10081608093A1008091A0008160809370
:1005B000A00080912101826080932101809121011E
:1005C00081608093210180912001816080932001CE
:1005D00080917A00846080937A0080917A008260B2
:1005E00080937A0080917A00816080937A00809174
:1005F0007A00806880937A001092C10087B1876F7B
:1006000087B988B1807888B981E019DF6AE070E045
:1006100080E090E0DCDE8FE99FE00197F1F700C019
:1006200000004098419880E388B9429AAFE1BEE467
:100630001197F1F700C000004298EFE9FFE0319711
:10064000F1F700C000004098419888B9429AAFE1A4
:10065000BEE41197F1F700C000004298EFE9FFE017
:100660003197F1F700C000004098419888B9429A4C
:100670008FE19EE40197F1F700C000004298AFE9D6
:10068000BFE01197F1F700C000004098419880E268
:1006900088B9429AEFE1FEE43197F1F700C000001B
:1006A000429887E1D4DD86E1D2DD88E1D0DD89E1C1
:1006B000CEDD8DE2CCDD8EE2CADD61E08DE2E6DDED
:1006C00061E08EE2E3DDC0E0D0E067994EC082E8F1
:1006D000B6DEE0E0F2E08191882329F198B19F70C5
:1006E00098B998B1282F207F922B98B9409A4198B9
:1006F000429AAFE1BEE41197F1F700C000004298C2
:100700008295807F98B19F7098B998B1892B88B9EC
:10071000409A4198429A8FE19EE40197F1F700C018
:1007200000004298D8CF68EE73E080E090E04FDEA2
:1007300061E087E1ABDD60E086E1A8DD61E088E1B2
:10074000A5DD60E089E1A2DD60ED77E080E090E08A
:100750003EDE60E087E19ADD60E086E197DD60E003
:1007600088E194DD60E089E191DD209709F4ADCF67
:100770000E940000AACFEE0FFF1F881F8BBF0790BB
:0A078000F691E02D1994F894FFCFD4
:08078A00466F72776172640092
:00000001FF
