:0300000002093FB3
:0C093F00787FE4F6D8FD75811D0208F7F2
:0708CA0012091B7F027E00F2
:1008D100E4FDFCD3ED9FEE6480F8EC648098501544
:1008E100E4FBFA0BBB00010ABA01F8BB2DF50DBD03
:0508F10000010C80DE97
:0108F60022DF
:10091B008FA0D2B5C2B7C2B17F017E001208D1C27F
:02092B00B522F3
:10092D008FA0C2B1D2B7D2B57F017E001208D1C25D
:02093D00B522E1
:04080000AB07AA0692
:10080400900000D3EB9400EA9400402A7C007D0A17
:10081400AF03AE02120875AF82EF25E02408F8A6F4
:100824000408A6057C007D0AAF03AE02120875AA6F
:1008340006AB07A380CDE582158270021583C3E55C
:1008440083648094804029AF82EF25E02408F8086F
:10085400E62430F51CF5A0C2B1D2B7D2B57F017E33
:10086400001208D1C2B5E582158270D2158380CEFC
:010874002261
:1008F70079FA7F381208CA7F0E1208CA7F061208D3
:10090700CA7F811208CA7F8112091B7FFA7E0012F3
:04091700080080FE56
:10087500BC000BBE0029EF8DF084FFADF022E4CC67
:10088500F875F008EF2FFFEE33FEEC33FCEE9DEC30
:10089500984005FCEE9DFE0FD5F0E9E4CEFD22ED76
:1008A500F8F5F0EE8420D21CFEADF075F008EF2FC0
:1008B500FFED33FD4007985006D5F0F222C398FDB1
:0508C5000FD5F0EA224E
:00000001FF
