:0300000002091DD5
:0C091D00787FE4F6D8FD75810B0208001D
:10090C00484156452041204E4943452044415920F9
:01091C0000DA
:100800007F381208F77F027E0012085C7F0E120804
:10081000F77F027E0012085C7F061208F77F027ED7
:100820000012085C7F801208F77F027E0012085CCD
:100830001208587F191208A67FC01208F71208582C
:0B0840007BFF7A09790C12087C80FE17
:10087C008B088A09890AAB08AA09A90A1208C9FFB8
:10088C0060171208E27401250AF50AE43509F50926
:0A089C007F0A7E0012085C80DD2256
:1008E2008F0BC281D290E50B12084CC291E50B121C
:0508F200084BC2912239
:1008A600C281D290EFD394004013EF75F00A84FF13
:1008B6002430F5A0EF75F00A84AFF080E7120856F1
:0308C600C29122BA
:1008F7008F08C281C290E50812084CC291E5081220
:05090700084BC2912223
:10084B00C454F0FFE5A0540F4FF5A0D2917F017E69
:01085B00009C
:10085C00E4FDFCC3ED9FEC9E5015E4FBFA0BBB00D2
:0F086C00010ABA04F8BBFBF50DBD00010C80E4D6
:01087B00225A
:1008C900BB010689828A83E0225002E722BBFE022D
:0908D900E32289828A83E4932260
:00000001FF
