:03000000020A6D84
:0C0A6D00787FE4F6D8FD758117020A3787
:040AAE004554430068
:0908C700120800D2B57F057E0085
:1008D000E4FDFCC3ED9FEE6480F8EC648098501555
:1008E000E4FBFA0BBB00010AEB64644A70F50DBD32
:0508F00000010C80DE98
:0108F50022E0
:10080000EF30E004D2A08002C2A0EF30E104D2A118
:100810008002C2A1EF30E204D2A28002C2A2EF3075
:10082000E304D2A38002C2A3EF30E404D2A4800286
:10083000C2A4EF30E504D2A58002C2A5EF30E604E1
:10084000D2A68002C2A6EF30E703D2A722C2A72217
:070A5E007E001208D07F307A
:080A6500C2B71208C7C2B52296
:050A9F007F01020A6561
:100A1C008F0AA905E50AB40105E924808008E50AD6
:0B0A2C00B40207E924C0FF120A652293
:1009A400E4FF120800C2B77FC8120A5E7F32120A3F
:1009B4005E7F6E120A5E7F38120A657F0C120A652A
:0A09C4007F01120A657F06020A6532
:080A9700D2B71208C7C2B52254
:060923008B0A8A0B890C0F
:10092900E4F50DF50EAB0AAA0BA90C850E82850D0F
:10093900831208F6FF600D120A97050EE50E70E5A1
:04094900050D80E137
:01094D002287
:050AA4007F1C020A6541
:050AA9007F18020A6540
:1009CE00EF30E004D2A48002C2A4EF30E104D2A53D
:1009DE008002C2A5EF30E204D2A68002C2A6EF309A
:0809EE00E303D2A722C2A722F5
:070A4C007E001208D07F03B9
:0B0A5300C2B71209CE1208CAC2B522B9
:0A0A7900E4FF120A537F01020A5342
:040850008F14A90553
:10085400E514B40112E92480FFF5157804A2E71326
:10086400D8FBF516EF8016E514B4021FE92480F5D1
:10087400157804A2E713D8FBF516E924C0540FF544
:0B08840017AF16120A53AF17120A53E9
:01088F002246
:10089000E4FF1209CE7FC8120A4C7F32120A4C7F45
:1008A0006E120A4C7F02120A537F02120A537F080B
:1008B000120A53E4FF120A537F0C120A53E4FF1288
:0708C0000A537F06020A53F0
:02094E00AE07F2
:10095000EE540FF9EE54F0FFD2B77804A2E713D8A3
:10096000FBFF1209CE1208CAC2B5AF011209CED2DE
:08097000B57F051208D0C2B5E5
:01097800225C
:060979008B0F8A108911AA
:10097F00E4F512F513AB0FAA10A911851382851296
:10098F00831208F6FF600D12094E0513E51370E58B
:04099F00051280E1DC
:0109A3002231
:0A0A83007F01120A537F0C020A5390
:0A0A8D007F01120A537F08020A538A
:1009F600E4FDFCC3ED9FEE6480F8EC64809850152E
:100A0600E4FBFA0BBB00010AEB64644A70F50DBD0A
:050A160000010C80DE70
:010A1B0022B8
:100A37001209A47D017F01120A1C7BFF7A0A79AE95
:050A470012092380EEFE
:1008F600BB010CE58229F582E5833AF583E02250B7
:1009060006E92582F8E622BBFE06E92582F8E22200
:0D091600E58229F582E5833AF583E493221A
:00000001FF
