:1000000071C000008EC000008CC000008AC00000DB
:1000100088C0000086C0000084C0000082C00000CC
:1000200080C000007EC000007CC000007AC00000DC
:1000300078C0000076C0000074C0000072C00000EC
:1000400070C000006EC000006CC000006AC00000FC
:1000500068C0000066C0000064C00000D2C000009C
:1000600060C000005EC000005CC000005AC000001C
:1000700058C0000056C0000054C0000052C000002C
:1000800050C000004EC000004CC000004AC000003C
:1000900048C0000046C0000044C0000042C000004C
:1000A00040C000003EC000003CC000003AC000005C
:1000B00038C0000036C0000034C0000032C000006C
:1000C00030C000002EC000002CC000002AC000007C
:1000D00028C0000026C0000024C0000022C000008C
:1000E00020C0000011241FBECFEFD1E2DEBFCDBF84
:1000F00000E00CBF12E0A0E0B2E0E2E9F4E000E0D2
:100100000BBF02C007900D92A431B107D9F722E0CE
:10011000A4E1B2E001C01D92AD31B207E1F7BBD05E
:10012000B6C16ECF3FB7F8948091190290911A0230
:10013000A0911B02B0911C0226B5A89B05C02F3FC1
:1001400019F00196A11DB11D3FBFBA2FA92F982FFD
:100150008827820F911DA11DB11DBC01CD0142E078
:10016000660F771F881F991F4A95D1F7089598B198
:100170009F7098B998B1282F207F922B98B9409AF8
:100180004198429AEFE1FEE43197F1F700C0000098
:1001900042988295807F98B19F7098B998B1892BC9
:1001A00088B9409A4198429A8FE19EE40197F1F70D
:1001B00000C000004298089598B19F7098B998B116
:1001C000282F207F922B98B940984198429AEFE1CE
:1001D000FEE43197F1F700C00000429898B19F709B
:1001E00098B998B18295807F892B88B940984198B9
:1001F000429A8FE19EE40197F1F700C00000429817
:1002000008951F920F920FB60F9211242F933F93D0
:100210008F939F93AF93BF93809115029091160295
:10022000A0911702B09118023091140223E0230F1D
:100230002D3720F40196A11DB11D05C026E8230F1E
:100240000296A11DB11D2093140280931502909374
:100250001602A0931702B093180280911902909190
:100260001A02A0911B02B0911C020196A11DB11DA2
:100270008093190290931A02A0931B02B0931C0260
:10028000BF91AF919F918F913F912F910F900FBE92
:100290000F901F901895789484B5826084BD84B5C2
:1002A000816084BD85B5826085BD85B5816085BD71
:1002B00080916E00816080936E0010928100809129
:1002C00081008260809381008091810081608093B1
:1002D0008100809180008160809380008091B100D6
:1002E00084608093B1008091B00081608093B00001
:1002F0008091910082608093910080919100816053
:100300008093910080919000816080939000809113
:10031000A10082608093A1008091A1008160809300
:10032000A1008091A00081608093A00080912101B4
:10033000826080932101809121018160809321015D
:100340008091200181608093200180917A008460F7
:1003500080937A0080917A00826080937A00809105
:100360007A00816080937A0080917A00806880931F
:100370007A001092C10087B1876F87B988B1887001
:1003800088B98FE99FE00197F1F700C0000040981D
:10039000419880E388B9429AEFE1FEE43197F1F7A2
:1003A00000C000004298EFE9FFE03197F1F700C08C
:1003B00000004098419888B9429AEFE1FEE43197F5
:1003C000F1F700C000004298EFE9FFE03197F1F744
:1003D00000C000004098419888B9429A8FE19EE49D
:1003E0000197F1F700C000004298EFE9FFE0319774
:1003F000F1F700C000004098419880E288B9429A25
:100400008FE19EE40197F1F700C00000429881E07F
:10041000D3DE88DE4B015C018AE0C82ED12CE12CB2
:10042000F12C80DEDC01CB0188199909AA09BB09EE
:10043000883E9340A105B10558F091E0C91AD10852
:10044000E108F108E8EE8E0EE3E09E1EA11CB11C4F
:10045000C114D104E104F10421F700E010E083E8C5
:10046000ABDEC0E0D2E08991882311F080DEFBCFC3
:1004700084ECA2DECBE0D2E08991882311F077DE14
:10048000FBCF0115110559F30E940000E8CFF89445
:02049000FFCF9C
:100492004669726562697264205600652D59616E03
:0404A200747261000F
:00000001FF
